{
  "contractName": "RentHouse",
  "abi": [
    {
      "inputs": [],
      "stateMutability": "nonpayable",
      "type": "constructor"
    },
    {
      "anonymous": false,
      "inputs": [
        {
          "indexed": true,
          "internalType": "address",
          "name": "walletAddress",
          "type": "address"
        },
        {
          "indexed": false,
          "internalType": "uint256",
          "name": "amount",
          "type": "uint256"
        }
      ],
      "name": "Balance",
      "type": "event"
    },
    {
      "anonymous": false,
      "inputs": [
        {
          "indexed": true,
          "internalType": "address",
          "name": "walletAddress",
          "type": "address"
        },
        {
          "indexed": true,
          "internalType": "uint256",
          "name": "houseId",
          "type": "uint256"
        }
      ],
      "name": "CheckInEvent",
      "type": "event"
    },
    {
      "anonymous": false,
      "inputs": [
        {
          "indexed": true,
          "internalType": "address",
          "name": "walletAddress",
          "type": "address"
        },
        {
          "indexed": true,
          "internalType": "uint256",
          "name": "houseId",
          "type": "uint256"
        }
      ],
      "name": "Checkout",
      "type": "event"
    },
    {
      "anonymous": false,
      "inputs": [
        {
          "indexed": true,
          "internalType": "address",
          "name": "walletAddress",
          "type": "address"
        },
        {
          "indexed": false,
          "internalType": "uint256",
          "name": "amount",
          "type": "uint256"
        }
      ],
      "name": "Deposit",
      "type": "event"
    },
    {
      "anonymous": false,
      "inputs": [
        {
          "indexed": true,
          "internalType": "uint256",
          "name": "id",
          "type": "uint256"
        },
        {
          "indexed": false,
          "internalType": "string",
          "name": "name",
          "type": "string"
        },
        {
          "indexed": false,
          "internalType": "string",
          "name": "imgUrl",
          "type": "string"
        },
        {
          "indexed": false,
          "internalType": "uint256",
          "name": "rentFee",
          "type": "uint256"
        },
        {
          "indexed": false,
          "internalType": "uint256",
          "name": "saleFee",
          "type": "uint256"
        }
      ],
      "name": "HouseAdded",
      "type": "event"
    },
    {
      "anonymous": false,
      "inputs": [
        {
          "indexed": true,
          "internalType": "uint256",
          "name": "id",
          "type": "uint256"
        },
        {
          "indexed": false,
          "internalType": "string",
          "name": "name",
          "type": "string"
        },
        {
          "indexed": false,
          "internalType": "string",
          "name": "imgUrl",
          "type": "string"
        },
        {
          "indexed": false,
          "internalType": "uint256",
          "name": "rentFee",
          "type": "uint256"
        },
        {
          "indexed": false,
          "internalType": "uint256",
          "name": "saleFee",
          "type": "uint256"
        }
      ],
      "name": "HouseMetadataEdited",
      "type": "event"
    },
    {
      "anonymous": false,
      "inputs": [
        {
          "indexed": true,
          "internalType": "uint256",
          "name": "id",
          "type": "uint256"
        },
        {
          "indexed": false,
          "internalType": "enum RentHouse.Status",
          "name": "status",
          "type": "uint8"
        }
      ],
      "name": "HouseStatusEdited",
      "type": "event"
    },
    {
      "anonymous": false,
      "inputs": [
        {
          "indexed": true,
          "internalType": "address",
          "name": "walletAddress",
          "type": "address"
        },
        {
          "indexed": false,
          "internalType": "uint256",
          "name": "amount",
          "type": "uint256"
        }
      ],
      "name": "PaymentMade",
      "type": "event"
    },
    {
      "anonymous": false,
      "inputs": [
        {
          "indexed": true,
          "internalType": "address",
          "name": "walletAddress",
          "type": "address"
        },
        {
          "indexed": false,
          "internalType": "string",
          "name": "name",
          "type": "string"
        },
        {
          "indexed": false,
          "internalType": "string",
          "name": "lastname",
          "type": "string"
        }
      ],
      "name": "UserAdded",
      "type": "event"
    },
    {
      "inputs": [
        {
          "internalType": "address",
          "name": "_newOwner",
          "type": "address"
        }
      ],
      "name": "setOwner",
      "outputs": [],
      "stateMutability": "nonpayable",
      "type": "function"
    },
    {
      "inputs": [
        {
          "internalType": "string",
          "name": "name",
          "type": "string"
        },
        {
          "internalType": "string",
          "name": "_lastName",
          "type": "string"
        }
      ],
      "name": "addUser",
      "outputs": [],
      "stateMutability": "nonpayable",
      "type": "function"
    },
    {
      "inputs": [
        {
          "internalType": "string",
          "name": "name",
          "type": "string"
        },
        {
          "internalType": "string",
          "name": "url",
          "type": "string"
        },
        {
          "internalType": "uint256",
          "name": "rent",
          "type": "uint256"
        },
        {
          "internalType": "uint256",
          "name": "sale",
          "type": "uint256"
        }
      ],
      "name": "addHouse",
      "outputs": [],
      "stateMutability": "nonpayable",
      "type": "function"
    },
    {
      "inputs": [
        {
          "internalType": "uint256",
          "name": "id",
          "type": "uint256"
        },
        {
          "internalType": "string",
          "name": "name",
          "type": "string"
        },
        {
          "internalType": "string",
          "name": "imgUrl",
          "type": "string"
        },
        {
          "internalType": "uint256",
          "name": "rentFee",
          "type": "uint256"
        },
        {
          "internalType": "uint256",
          "name": "saleFee",
          "type": "uint256"
        }
      ],
      "name": "editHouseMetadata",
      "outputs": [],
      "stateMutability": "nonpayable",
      "type": "function"
    },
    {
      "inputs": [
        {
          "internalType": "uint256",
          "name": "id",
          "type": "uint256"
        },
        {
          "internalType": "enum RentHouse.Status",
          "name": "status",
          "type": "uint8"
        }
      ],
      "name": "editHouseStatus",
      "outputs": [],
      "stateMutability": "nonpayable",
      "type": "function"
    },
    {
      "inputs": [
        {
          "internalType": "uint256",
          "name": "id",
          "type": "uint256"
        }
      ],
      "name": "checkOut",
      "outputs": [],
      "stateMutability": "nonpayable",
      "type": "function"
    },
    {
      "inputs": [],
      "name": "CheckIn",
      "outputs": [],
      "stateMutability": "nonpayable",
      "type": "function"
    },
    {
      "inputs": [],
      "name": "deposit",
      "outputs": [],
      "stateMutability": "payable",
      "type": "function",
      "payable": true
    },
    {
      "inputs": [],
      "name": "makePayment",
      "outputs": [],
      "stateMutability": "payable",
      "type": "function",
      "payable": true
    },
    {
      "inputs": [
        {
          "internalType": "uint256",
          "name": "amount",
          "type": "uint256"
        }
      ],
      "name": "withdrawBalance",
      "outputs": [],
      "stateMutability": "nonpayable",
      "type": "function"
    },
    {
      "inputs": [
        {
          "internalType": "uint256",
          "name": "amount",
          "type": "uint256"
        }
      ],
      "name": "withdrawOwnerBalance",
      "outputs": [],
      "stateMutability": "nonpayable",
      "type": "function"
    },
    {
      "inputs": [],
      "name": "getOwner",
      "outputs": [
        {
          "internalType": "address",
          "name": "",
          "type": "address"
        }
      ],
      "stateMutability": "view",
      "type": "function",
      "constant": true
    },
    {
      "inputs": [
        {
          "internalType": "address",
          "name": "walletAddress",
          "type": "address"
        }
      ],
      "name": "getUser",
      "outputs": [
        {
          "components": [
            {
              "internalType": "address",
              "name": "walletAddress",
              "type": "address"
            },
            {
              "internalType": "string",
              "name": "name",
              "type": "string"
            },
            {
              "internalType": "string",
              "name": "lastname",
              "type": "string"
            },
            {
              "internalType": "uint256",
              "name": "rentedHouseId",
              "type": "uint256"
            },
            {
              "internalType": "uint256",
              "name": "balance",
              "type": "uint256"
            },
            {
              "internalType": "uint256",
              "name": "debt",
              "type": "uint256"
            },
            {
              "internalType": "uint256",
              "name": "start",
              "type": "uint256"
            }
          ],
          "internalType": "struct RentHouse.User",
          "name": "",
          "type": "tuple"
        }
      ],
      "stateMutability": "view",
      "type": "function",
      "constant": true
    },
    {
      "inputs": [
        {
          "internalType": "uint256",
          "name": "id",
          "type": "uint256"
        }
      ],
      "name": "getHouse",
      "outputs": [
        {
          "components": [
            {
              "internalType": "uint256",
              "name": "id",
              "type": "uint256"
            },
            {
              "internalType": "string",
              "name": "name",
              "type": "string"
            },
            {
              "internalType": "string",
              "name": "imgUrl",
              "type": "string"
            },
            {
              "internalType": "enum RentHouse.Status",
              "name": "status",
              "type": "uint8"
            },
            {
              "internalType": "uint256",
              "name": "rentFee",
              "type": "uint256"
            },
            {
              "internalType": "uint256",
              "name": "saleFee",
              "type": "uint256"
            }
          ],
          "internalType": "struct RentHouse.House",
          "name": "",
          "type": "tuple"
        }
      ],
      "stateMutability": "view",
      "type": "function",
      "constant": true
    },
    {
      "inputs": [
        {
          "internalType": "enum RentHouse.Status",
          "name": "_status",
          "type": "uint8"
        }
      ],
      "name": "getHouseByStatus",
      "outputs": [
        {
          "components": [
            {
              "internalType": "uint256",
              "name": "id",
              "type": "uint256"
            },
            {
              "internalType": "string",
              "name": "name",
              "type": "string"
            },
            {
              "internalType": "string",
              "name": "imgUrl",
              "type": "string"
            },
            {
              "internalType": "enum RentHouse.Status",
              "name": "status",
              "type": "uint8"
            },
            {
              "internalType": "uint256",
              "name": "rentFee",
              "type": "uint256"
            },
            {
              "internalType": "uint256",
              "name": "saleFee",
              "type": "uint256"
            }
          ],
          "internalType": "struct RentHouse.House[]",
          "name": "",
          "type": "tuple[]"
        }
      ],
      "stateMutability": "view",
      "type": "function",
      "constant": true
    },
    {
      "inputs": [],
      "name": "getCurrentCount",
      "outputs": [
        {
          "internalType": "uint256",
          "name": "",
          "type": "uint256"
        }
      ],
      "stateMutability": "view",
      "type": "function",
      "constant": true
    },
    {
      "inputs": [],
      "name": "getBalance",
      "outputs": [
        {
          "internalType": "uint256",
          "name": "",
          "type": "uint256"
        }
      ],
      "stateMutability": "view",
      "type": "function",
      "constant": true
    },
    {
      "inputs": [],
      "name": "getTotalPayments",
      "outputs": [
        {
          "internalType": "uint256",
          "name": "",
          "type": "uint256"
        }
      ],
      "stateMutability": "view",
      "type": "function",
      "constant": true
    }
  ],
  "bytecode": "0x608060405234801561001057600080fd5b50600160008190555033600260006101000a81548173ffffffffffffffffffffffffffffffffffffffff021916908373ffffffffffffffffffffffffffffffffffffffff1602179055506000600381905550613991806100716000396000f3fe6080604052600436106101095760003560e01c8063893d20e811610095578063da76d5cd11610064578063da76d5cd14610313578063dd51babf1461033c578063e301545914610367578063e79da7ba146103a4578063f6a1e57d146103bb57610109565b8063893d20e8146102ab578063bf5957ec146102d6578063d0e30db0146102ff578063d8d797001461030957610109565b80633107c99d116100dc5780633107c99d146101b45780633c69c657146101f15780636f77926b1461021a578063708f29a6146102575780638172998a1461028257610109565b8063079eaf341461010e57806312065fe01461013757806313af4035146101625780631bd2eeee1461018b575b600080fd5b34801561011a57600080fd5b5061013560048036038101906101309190612444565b6103e4565b005b34801561014357600080fd5b5061014c610639565b60405161015991906124de565b60405180910390f35b34801561016e57600080fd5b5061018960048036038101906101849190612557565b610641565b005b34801561019757600080fd5b506101b260048036038101906101ad91906125b0565b610715565b005b3480156101c057600080fd5b506101db60048036038101906101d691906125b0565b610a04565b6040516101e89190612783565b60405180910390f35b3480156101fd57600080fd5b50610218600480360381019061021391906125b0565b610c07565b005b34801561022657600080fd5b50610241600480360381019061023c9190612557565b610dab565b60405161024e9190612857565b60405180910390f35b34801561026357600080fd5b5061026c610fee565b60405161027991906124de565b60405180910390f35b34801561028e57600080fd5b506102a960048036038101906102a49190612879565b611088565b005b3480156102b757600080fd5b506102c0611242565b6040516102cd9190612944565b60405180910390f35b3480156102e257600080fd5b506102fd60048036038101906102f8919061295f565b61126c565b005b6103076114dc565b005b610311611610565b005b34801561031f57600080fd5b5061033a600480360381019061033591906125b0565b61186f565b005b34801561034857600080fd5b50610351611a9f565b60405161035e91906124de565b60405180910390f35b34801561037357600080fd5b5061038e60048036038101906103899190612a2b565b611ab0565b60405161039b9190612baa565b60405180910390f35b3480156103b057600080fd5b506103b9611ddf565b005b3480156103c757600080fd5b506103e260048036038101906103dd9190612bcc565b612098565b005b6103ed336121fb565b1561042d576040517f08c379a000000000000000000000000000000000000000000000000000000000815260040161042490612c69565b60405180910390fd5b6040518060e001604052803373ffffffffffffffffffffffffffffffffffffffff16815260200185858080601f016020809104026020016040519081016040528093929190818152602001838380828437600081840152601f19601f82011690508083019250505050505050815260200183838080601f016020809104026020016040519081016040528093929190818152602001838380828437600081840152601f19601f8201169050808301925050505050505081526020016000815260200160008152602001600081526020016000815250600460003373ffffffffffffffffffffffffffffffffffffffff1673ffffffffffffffffffffffffffffffffffffffff16815260200190815260200160002060008201518160000160006101000a81548173ffffffffffffffffffffffffffffffffffffffff021916908373ffffffffffffffffffffffffffffffffffffffff160217905550602082015181600101908161059d9190612ec4565b5060408201518160020190816105b39190612ec4565b50606082015181600301556080820151816004015560a0820151816005015560c082015181600601559050503373ffffffffffffffffffffffffffffffffffffffff167f8eab1db142a914aff8b515eedb9177bd7effaef6d714c41e30bdf152067786078585858560405161062b9493929190612fd2565b60405180910390a250505050565b600047905090565b600260009054906101000a900473ffffffffffffffffffffffffffffffffffffffff1673ffffffffffffffffffffffffffffffffffffffff163373ffffffffffffffffffffffffffffffffffffffff16146106d1576040517f08c379a00000000000000000000000000000000000000000000000000000000081526004016106c890613059565b60405180910390fd5b80600260006101000a81548173ffffffffffffffffffffffffffffffffffffffff021916908373ffffffffffffffffffffffffffffffffffffffff16021790555050565b61071e336121fb565b61075d576040517f08c379a0000000000000000000000000000000000000000000000000000000008152600401610754906130c5565b60405180910390fd5b6002808111156107705761076f61267c565b5b6005600083815260200190815260200160002060030160009054906101000a900460ff1660028111156107a6576107a561267c565b5b146107e6576040517f08c379a00000000000000000000000000000000000000000000000000000000081526004016107dd90613131565b60405180910390fd5b6000600460003373ffffffffffffffffffffffffffffffffffffffff1673ffffffffffffffffffffffffffffffffffffffff168152602001908152602001600020600301541461086b576040517f08c379a00000000000000000000000000000000000000000000000000000000081526004016108629061319d565b60405180910390fd5b6000600460003373ffffffffffffffffffffffffffffffffffffffff1673ffffffffffffffffffffffffffffffffffffffff16815260200190815260200160002060050154146108f0576040517f08c379a00000000000000000000000000000000000000000000000000000000081526004016108e790613209565b60405180910390fd5b42600460003373ffffffffffffffffffffffffffffffffffffffff1673ffffffffffffffffffffffffffffffffffffffff1681526020019081526020016000206006018190555080600460003373ffffffffffffffffffffffffffffffffffffffff1673ffffffffffffffffffffffffffffffffffffffff1681526020019081526020016000206003018190555060016005600083815260200190815260200160002060030160006101000a81548160ff021916908360028111156109b8576109b761267c565b5b0217905550803373ffffffffffffffffffffffffffffffffffffffff167f10190e7f174afbe5482194d509017e9df854671cd62fb4ef901fbd0080c1e6b660405160405180910390a350565b610a0c61233a565b6000600560008481526020019081526020016000206000015403610a65576040517f08c379a0000000000000000000000000000000000000000000000000000000008152600401610a5c90613275565b60405180910390fd5b600560008381526020019081526020016000206040518060c001604052908160008201548152602001600182018054610a9d90612ce7565b80601f0160208091040260200160405190810160405280929190818152602001828054610ac990612ce7565b8015610b165780601f10610aeb57610100808354040283529160200191610b16565b820191906000526020600020905b815481529060010190602001808311610af957829003601f168201915b50505050508152602001600282018054610b2f90612ce7565b80601f0160208091040260200160405190810160405280929190818152602001828054610b5b90612ce7565b8015610ba85780601f10610b7d57610100808354040283529160200191610ba8565b820191906000526020600020905b815481529060010190602001808311610b8b57829003601f168201915b505050505081526020016003820160009054906101000a900460ff166002811115610bd657610bd561267c565b5b6002811115610be857610be761267c565b5b8152602001600482015481526020016005820154815250509050919050565b600260009054906101000a900473ffffffffffffffffffffffffffffffffffffffff1673ffffffffffffffffffffffffffffffffffffffff163373ffffffffffffffffffffffffffffffffffffffff1614610c97576040517f08c379a0000000000000000000000000000000000000000000000000000000008152600401610c8e90613059565b60405180910390fd5b610c9f612296565b8060035411610ce3576040517f08c379a0000000000000000000000000000000000000000000000000000000008152600401610cda906132e1565b60405180910390fd5b60003373ffffffffffffffffffffffffffffffffffffffff1682604051610d0990613332565b60006040518083038185875af1925050503d8060008114610d46576040519150601f19603f3d011682016040523d82523d6000602084013e610d4b565b606091505b5050905080610d8f576040517f08c379a0000000000000000000000000000000000000000000000000000000008152600401610d8690613393565b60405180910390fd5b8160036000828254039250508190555050610da86122e5565b50565b610db3612382565b610dbc826121fb565b610dfb576040517f08c379a0000000000000000000000000000000000000000000000000000000008152600401610df2906130c5565b60405180910390fd5b600460008373ffffffffffffffffffffffffffffffffffffffff1673ffffffffffffffffffffffffffffffffffffffff1681526020019081526020016000206040518060e00160405290816000820160009054906101000a900473ffffffffffffffffffffffffffffffffffffffff1673ffffffffffffffffffffffffffffffffffffffff1673ffffffffffffffffffffffffffffffffffffffff168152602001600182018054610eab90612ce7565b80601f0160208091040260200160405190810160405280929190818152602001828054610ed790612ce7565b8015610f245780601f10610ef957610100808354040283529160200191610f24565b820191906000526020600020905b815481529060010190602001808311610f0757829003601f168201915b50505050508152602001600282018054610f3d90612ce7565b80601f0160208091040260200160405190810160405280929190818152602001828054610f6990612ce7565b8015610fb65780601f10610f8b57610100808354040283529160200191610fb6565b820191906000526020600020905b815481529060010190602001808311610f9957829003601f168201915b505050505081526020016003820154815260200160048201548152602001600582015481526020016006820154815250509050919050565b6000600260009054906101000a900473ffffffffffffffffffffffffffffffffffffffff1673ffffffffffffffffffffffffffffffffffffffff163373ffffffffffffffffffffffffffffffffffffffff1614611080576040517f08c379a000000000000000000000000000000000000000000000000000000000815260040161107790613059565b60405180910390fd5b600354905090565b600260009054906101000a900473ffffffffffffffffffffffffffffffffffffffff1673ffffffffffffffffffffffffffffffffffffffff163373ffffffffffffffffffffffffffffffffffffffff1614611118576040517f08c379a000000000000000000000000000000000000000000000000000000000815260040161110f90613059565b60405180910390fd5b6000600560008981526020019081526020016000206000015403611171576040517f08c379a000000000000000000000000000000000000000000000000000000000815260040161116890613275565b60405180910390fd5b6000600560008981526020019081526020016000209050600087879050146111a85786868260010191826111a69291906133be565b505b600085859050146111c85784848260020191826111c69291906133be565b505b600083146111da578281600401819055505b600082146111ec578181600501819055505b877f1a6be52245ed7a361d08fee1854640d6b4d8754b6df88f1b3522de6524b440978260010183600201846004015485600501546040516112309493929190613512565b60405180910390a25050505050505050565b6000600260009054906101000a900473ffffffffffffffffffffffffffffffffffffffff16905090565b600260009054906101000a900473ffffffffffffffffffffffffffffffffffffffff1673ffffffffffffffffffffffffffffffffffffffff163373ffffffffffffffffffffffffffffffffffffffff16146112fc576040517f08c379a00000000000000000000000000000000000000000000000000000000081526004016112f390613059565b60405180910390fd5b61130660016122ef565b60006113126001612305565b90506040518060c0016040528082815260200188888080601f016020809104026020016040519081016040528093929190818152602001838380828437600081840152601f19601f82011690508083019250505050505050815260200186868080601f016020809104026020016040519081016040528093929190818152602001838380828437600081840152601f19601f8201169050808301925050505050505081526020016002808111156113cc576113cb61267c565b5b8152602001848152602001838152506005600083815260200190815260200160002060008201518160000155602082015181600101908161140d9190612ec4565b5060408201518160020190816114239190612ec4565b5060608201518160030160006101000a81548160ff0219169083600281111561144f5761144e61267c565b5b02179055506080820151816004015560a08201518160050155905050807f73a4dd6d407f948165ff167da5924d9e3bbfdd582584e8c6a19454d784519a7a600560008481526020019081526020016000206001016005600085815260200190815260200160002060020186866040516114cb9493929190613512565b60405180910390a250505050505050565b6114e5336121fb565b611524576040517f08c379a000000000000000000000000000000000000000000000000000000000815260040161151b906130c5565b60405180910390fd5b60003411611567576040517f08c379a000000000000000000000000000000000000000000000000000000000815260040161155e906135b1565b60405180910390fd5b34600460003373ffffffffffffffffffffffffffffffffffffffff1673ffffffffffffffffffffffffffffffffffffffff16815260200190815260200160002060040160008282546115b99190613600565b925050819055503373ffffffffffffffffffffffffffffffffffffffff167fe1fffcc4923d04b559f4d29a8bfc6cda04eb5b0d3c460751c2402c5c5cc9109c3460405161160691906124de565b60405180910390a2565b611619336121fb565b611658576040517f08c379a000000000000000000000000000000000000000000000000000000000815260040161164f906130c5565b60405180910390fd5b6000600460003373ffffffffffffffffffffffffffffffffffffffff1673ffffffffffffffffffffffffffffffffffffffff1681526020019081526020016000206005015490506000600460003373ffffffffffffffffffffffffffffffffffffffff1673ffffffffffffffffffffffffffffffffffffffff16815260200190815260200160002060040154905060008211611729576040517f08c379a000000000000000000000000000000000000000000000000000000000815260040161172090613680565b60405180910390fd5b8181101561176c576040517f08c379a0000000000000000000000000000000000000000000000000000000008152600401611763906136ec565b60405180910390fd5b34600460003373ffffffffffffffffffffffffffffffffffffffff1673ffffffffffffffffffffffffffffffffffffffff1681526020019081526020016000206005016000828254039250508190555034600360008282546117ce9190613600565b925050819055506000600460003373ffffffffffffffffffffffffffffffffffffffff1673ffffffffffffffffffffffffffffffffffffffff168152602001908152602001600020600501819055503373ffffffffffffffffffffffffffffffffffffffff167f3a2d0e41c506b136330c6e5e0295ccbf0966daece99bfe7c89020cc01dbfb8d68360405161186391906124de565b60405180910390a25050565b611877612296565b611880336121fb565b6118bf576040517f08c379a00000000000000000000000000000000000000000000000000000000081526004016118b6906130c5565b60405180910390fd5b6000600460003373ffffffffffffffffffffffffffffffffffffffff1673ffffffffffffffffffffffffffffffffffffffff168152602001908152602001600020600401549050818111611948576040517f08c379a000000000000000000000000000000000000000000000000000000000815260040161193f906132e1565b60405180910390fd5b81600460003373ffffffffffffffffffffffffffffffffffffffff1673ffffffffffffffffffffffffffffffffffffffff1681526020019081526020016000206004016000828254039250508190555060003373ffffffffffffffffffffffffffffffffffffffff16836040516119be90613332565b60006040518083038185875af1925050503d80600081146119fb576040519150601f19603f3d011682016040523d82523d6000602084013e611a00565b606091505b5050905080611a44576040517f08c379a0000000000000000000000000000000000000000000000000000000008152600401611a3b90613393565b60405180910390fd5b3373ffffffffffffffffffffffffffffffffffffffff167f134e340554ff8a7d64280a2a28b982df554e2595e5bf45cd39368f31099172a683604051611a8a91906124de565b60405180910390a25050611a9c6122e5565b50565b6000611aab6001612305565b905090565b6060600080611abf6001612305565b90506000600190505b818111611b3f57846002811115611ae257611ae161267c565b5b6005600083815260200190815260200160002060030160009054906101000a900460ff166002811115611b1857611b1761267c565b5b03611b2c578280611b289061370c565b9350505b8080611b379061370c565b915050611ac8565b5060008267ffffffffffffffff811115611b5c57611b5b612c89565b5b604051908082528060200260200182016040528015611b9557816020015b611b8261233a565b815260200190600190039081611b7a5790505b509050600092506000600190505b828111611dd357856002811115611bbd57611bbc61267c565b5b6005600083815260200190815260200160002060030160009054906101000a900460ff166002811115611bf357611bf261267c565b5b03611dc057600560008281526020019081526020016000206040518060c001604052908160008201548152602001600182018054611c3090612ce7565b80601f0160208091040260200160405190810160405280929190818152602001828054611c5c90612ce7565b8015611ca95780601f10611c7e57610100808354040283529160200191611ca9565b820191906000526020600020905b815481529060010190602001808311611c8c57829003601f168201915b50505050508152602001600282018054611cc290612ce7565b80601f0160208091040260200160405190810160405280929190818152602001828054611cee90612ce7565b8015611d3b5780601f10611d1057610100808354040283529160200191611d3b565b820191906000526020600020905b815481529060010190602001808311611d1e57829003601f168201915b505050505081526020016003820160009054906101000a900460ff166002811115611d6957611d6861267c565b5b6002811115611d7b57611d7a61267c565b5b815260200160048201548152602001600582015481525050828581518110611da657611da5613754565b5b60200260200101819052508380611dbc9061370c565b9450505b8080611dcb9061370c565b915050611ba3565b50809350505050919050565b611de8336121fb565b611e27576040517f08c379a0000000000000000000000000000000000000000000000000000000008152600401611e1e906130c5565b60405180910390fd5b6000600460003373ffffffffffffffffffffffffffffffffffffffff1673ffffffffffffffffffffffffffffffffffffffff16815260200190815260200160002060030154905060008103611eb1576040517f08c379a0000000000000000000000000000000000000000000000000000000008152600401611ea8906137cf565b60405180910390fd5b6000600460003373ffffffffffffffffffffffffffffffffffffffff1673ffffffffffffffffffffffffffffffffffffffff1681526020019081526020016000206006015442611f0191906137ef565b9050600060056000848152602001908152602001600020600401549050611f288282612313565b600460003373ffffffffffffffffffffffffffffffffffffffff1673ffffffffffffffffffffffffffffffffffffffff1681526020019081526020016000206005016000828254611f799190613600565b925050819055506000600460003373ffffffffffffffffffffffffffffffffffffffff1673ffffffffffffffffffffffffffffffffffffffff168152602001908152602001600020600301819055506000600460003373ffffffffffffffffffffffffffffffffffffffff1673ffffffffffffffffffffffffffffffffffffffff1681526020019081526020016000206006018190555060026005600085815260200190815260200160002060030160006101000a81548160ff0219169083600281111561204a5761204961267c565b5b0217905550823373ffffffffffffffffffffffffffffffffffffffff167fa6a1daf8de816aba3b1ca455a4fd97cd44d0284c1777877bffdbd7304402955160405160405180910390a3505050565b600260009054906101000a900473ffffffffffffffffffffffffffffffffffffffff1673ffffffffffffffffffffffffffffffffffffffff163373ffffffffffffffffffffffffffffffffffffffff1614612128576040517f08c379a000000000000000000000000000000000000000000000000000000000815260040161211f90613059565b60405180910390fd5b6000600560008481526020019081526020016000206000015403612181576040517f08c379a000000000000000000000000000000000000000000000000000000000815260040161217890613275565b60405180910390fd5b806005600084815260200190815260200160002060030160006101000a81548160ff021916908360028111156121ba576121b961267c565b5b0217905550817fe31ea1ae27deaa6de50367d59b173ee69d6984cbfea3defd21efd1b59f2d5434826040516121ef9190613832565b60405180910390a25050565b60008073ffffffffffffffffffffffffffffffffffffffff16600460008473ffffffffffffffffffffffffffffffffffffffff1673ffffffffffffffffffffffffffffffffffffffff16815260200190815260200160002060000160009054906101000a900473ffffffffffffffffffffffffffffffffffffffff1673ffffffffffffffffffffffffffffffffffffffff1614159050919050565b6002600054036122db576040517f08c379a00000000000000000000000000000000000000000000000000000000081526004016122d290613899565b60405180910390fd5b6002600081905550565b6001600081905550565b6001816000016000828254019250508190555050565b600081600001549050919050565b600080603c8461232391906138e8565b905082816123319190613919565b91505092915050565b6040518060c001604052806000815260200160608152602001606081526020016000600281111561236e5761236d61267c565b5b815260200160008152602001600081525090565b6040518060e00160405280600073ffffffffffffffffffffffffffffffffffffffff1681526020016060815260200160608152602001600081526020016000815260200160008152602001600081525090565b600080fd5b600080fd5b600080fd5b600080fd5b600080fd5b60008083601f840112612404576124036123df565b5b8235905067ffffffffffffffff811115612421576124206123e4565b5b60208301915083600182028301111561243d5761243c6123e9565b5b9250929050565b6000806000806040858703121561245e5761245d6123d5565b5b600085013567ffffffffffffffff81111561247c5761247b6123da565b5b612488878288016123ee565b9450945050602085013567ffffffffffffffff8111156124ab576124aa6123da565b5b6124b7878288016123ee565b925092505092959194509250565b6000819050919050565b6124d8816124c5565b82525050565b60006020820190506124f360008301846124cf565b92915050565b600073ffffffffffffffffffffffffffffffffffffffff82169050919050565b6000612524826124f9565b9050919050565b61253481612519565b811461253f57600080fd5b50565b6000813590506125518161252b565b92915050565b60006020828403121561256d5761256c6123d5565b5b600061257b84828501612542565b91505092915050565b61258d816124c5565b811461259857600080fd5b50565b6000813590506125aa81612584565b92915050565b6000602082840312156125c6576125c56123d5565b5b60006125d48482850161259b565b91505092915050565b6125e6816124c5565b82525050565b600081519050919050565b600082825260208201905092915050565b60005b8381101561262657808201518184015260208101905061260b565b60008484015250505050565b6000601f19601f8301169050919050565b600061264e826125ec565b61265881856125f7565b9350612668818560208601612608565b61267181612632565b840191505092915050565b7f4e487b7100000000000000000000000000000000000000000000000000000000600052602160045260246000fd5b600381106126bc576126bb61267c565b5b50565b60008190506126cd826126ab565b919050565b60006126dd826126bf565b9050919050565b6126ed816126d2565b82525050565b600060c08301600083015161270b60008601826125dd565b50602083015184820360208601526127238282612643565b9150506040830151848203604086015261273d8282612643565b915050606083015161275260608601826126e4565b50608083015161276560808601826125dd565b5060a083015161277860a08601826125dd565b508091505092915050565b6000602082019050818103600083015261279d81846126f3565b905092915050565b6127ae81612519565b82525050565b600060e0830160008301516127cc60008601826127a5565b50602083015184820360208601526127e48282612643565b915050604083015184820360408601526127fe8282612643565b915050606083015161281360608601826125dd565b50608083015161282660808601826125dd565b5060a083015161283960a08601826125dd565b5060c083015161284c60c08601826125dd565b508091505092915050565b6000602082019050818103600083015261287181846127b4565b905092915050565b600080600080600080600060a0888a031215612898576128976123d5565b5b60006128a68a828b0161259b565b975050602088013567ffffffffffffffff8111156128c7576128c66123da565b5b6128d38a828b016123ee565b9650965050604088013567ffffffffffffffff8111156128f6576128f56123da565b5b6129028a828b016123ee565b945094505060606129158a828b0161259b565b92505060806129268a828b0161259b565b91505092959891949750929550565b61293e81612519565b82525050565b60006020820190506129596000830184612935565b92915050565b6000806000806000806080878903121561297c5761297b6123d5565b5b600087013567ffffffffffffffff81111561299a576129996123da565b5b6129a689828a016123ee565b9650965050602087013567ffffffffffffffff8111156129c9576129c86123da565b5b6129d589828a016123ee565b945094505060406129e889828a0161259b565b92505060606129f989828a0161259b565b9150509295509295509295565b60038110612a1357600080fd5b50565b600081359050612a2581612a06565b92915050565b600060208284031215612a4157612a406123d5565b5b6000612a4f84828501612a16565b91505092915050565b600081519050919050565b600082825260208201905092915050565b6000819050602082019050919050565b600060c083016000830151612a9c60008601826125dd565b5060208301518482036020860152612ab48282612643565b91505060408301518482036040860152612ace8282612643565b9150506060830151612ae360608601826126e4565b506080830151612af660808601826125dd565b5060a0830151612b0960a08601826125dd565b508091505092915050565b6000612b208383612a84565b905092915050565b6000602082019050919050565b6000612b4082612a58565b612b4a8185612a63565b935083602082028501612b5c85612a74565b8060005b85811015612b985784840389528151612b798582612b14565b9450612b8483612b28565b925060208a01995050600181019050612b60565b50829750879550505050505092915050565b60006020820190508181036000830152612bc48184612b35565b905092915050565b60008060408385031215612be357612be26123d5565b5b6000612bf18582860161259b565b9250506020612c0285828601612a16565b9150509250929050565b600082825260208201905092915050565b7f5573657220616c72656164792065786973747300000000000000000000000000600082015250565b6000612c53601383612c0c565b9150612c5e82612c1d565b602082019050919050565b60006020820190508181036000830152612c8281612c46565b9050919050565b7f4e487b7100000000000000000000000000000000000000000000000000000000600052604160045260246000fd5b7f4e487b7100000000000000000000000000000000000000000000000000000000600052602260045260246000fd5b60006002820490506001821680612cff57607f821691505b602082108103612d1257612d11612cb8565b5b50919050565b60008190508160005260206000209050919050565b60006020601f8301049050919050565b600082821b905092915050565b600060088302612d7a7fffffffffffffffffffffffffffffffffffffffffffffffffffffffffffffffff82612d3d565b612d848683612d3d565b95508019841693508086168417925050509392505050565b6000819050919050565b6000612dc1612dbc612db7846124c5565b612d9c565b6124c5565b9050919050565b6000819050919050565b612ddb83612da6565b612def612de782612dc8565b848454612d4a565b825550505050565b600090565b612e04612df7565b612e0f818484612dd2565b505050565b5b81811015612e3357612e28600082612dfc565b600181019050612e15565b5050565b601f821115612e7857612e4981612d18565b612e5284612d2d565b81016020851015612e61578190505b612e75612e6d85612d2d565b830182612e14565b50505b505050565b600082821c905092915050565b6000612e9b60001984600802612e7d565b1980831691505092915050565b6000612eb48383612e8a565b9150826002028217905092915050565b612ecd826125ec565b67ffffffffffffffff811115612ee657612ee5612c89565b5b612ef08254612ce7565b612efb828285612e37565b600060209050601f831160018114612f2e5760008415612f1c578287015190505b612f268582612ea8565b865550612f8e565b601f198416612f3c86612d18565b60005b82811015612f6457848901518255600182019150602085019450602081019050612f3f565b86831015612f815784890151612f7d601f891682612e8a565b8355505b6001600288020188555050505b505050505050565b82818337600083830152505050565b6000612fb18385612c0c565b9350612fbe838584612f96565b612fc783612632565b840190509392505050565b60006040820190508181036000830152612fed818688612fa5565b90508181036020830152613002818486612fa5565b905095945050505050565b7f596f75277265206e6f7420746865206f776e6572000000000000000000000000600082015250565b6000613043601483612c0c565b915061304e8261300d565b602082019050919050565b6000602082019050818103600083015261307281613036565b9050919050565b7f5573657220646f65736e27742065786973740000000000000000000000000000600082015250565b60006130af601283612c0c565b91506130ba82613079565b602082019050919050565b600060208201905081810360008301526130de816130a2565b9050919050565b7f486f757365206973206e6f7420617661696c61626c6500000000000000000000600082015250565b600061311b601683612c0c565b9150613126826130e5565b602082019050919050565b6000602082019050818103600083015261314a8161310e565b9050919050565b7f5573657220616c726561647920686173206120686f7573652072656e74656400600082015250565b6000613187601f83612c0c565b915061319282613151565b602082019050919050565b600060208201905081810360008301526131b68161317a565b9050919050565b7f5573657220686173206465627400000000000000000000000000000000000000600082015250565b60006131f3600d83612c0c565b91506131fe826131bd565b602082019050919050565b60006020820190508181036000830152613222816131e6565b9050919050565b7f486f75736520646f65736e277420657869737400000000000000000000000000600082015250565b600061325f601383612c0c565b915061326a82613229565b602082019050919050565b6000602082019050818103600083015261328e81613252565b9050919050565b7f596f7520646f6e2774206861766520656e6f7567682062616c616e6365000000600082015250565b60006132cb601d83612c0c565b91506132d682613295565b602082019050919050565b600060208201905081810360008301526132fa816132be565b9050919050565b600081905092915050565b50565b600061331c600083613301565b91506133278261330c565b600082019050919050565b600061333d8261330f565b9150819050919050565b7f5472616e73666572206661696c65642e00000000000000000000000000000000600082015250565b600061337d601083612c0c565b915061338882613347565b602082019050919050565b600060208201905081810360008301526133ac81613370565b9050919050565b600082905092915050565b6133c883836133b3565b67ffffffffffffffff8111156133e1576133e0612c89565b5b6133eb8254612ce7565b6133f6828285612e37565b6000601f8311600181146134255760008415613413578287013590505b61341d8582612ea8565b865550613485565b601f19841661343386612d18565b60005b8281101561345b57848901358255600182019150602085019450602081019050613436565b868310156134785784890135613474601f891682612e8a565b8355505b6001600288020188555050505b50505050505050565b6000815461349b81612ce7565b6134a58186612c0c565b945060018216600081146134c057600181146134d657613509565b60ff198316865281151560200286019350613509565b6134df85612d18565b60005b83811015613501578154818901526001820191506020810190506134e2565b808801955050505b50505092915050565b6000608082019050818103600083015261352c818761348e565b90508181036020830152613540818661348e565b905061354f60408301856124cf565b61355c60608301846124cf565b95945050505050565b7f596f75206d7573742073656e642067726561746572207468616e203000000000600082015250565b600061359b601c83612c0c565b91506135a682613565565b602082019050919050565b600060208201905081810360008301526135ca8161358e565b9050919050565b7f4e487b7100000000000000000000000000000000000000000000000000000000600052601160045260246000fd5b600061360b826124c5565b9150613616836124c5565b925082820190508082111561362e5761362d6135d1565b5b92915050565b7f5573657220646f65736e27742068617665206465627400000000000000000000600082015250565b600061366a601683612c0c565b915061367582613634565b602082019050919050565b600060208201905081810360008301526136998161365d565b9050919050565b7f5573657220646f65736e2774206861766520656e6f7567682062616c616e6365600082015250565b60006136d6602083612c0c565b91506136e1826136a0565b602082019050919050565b60006020820190508181036000830152613705816136c9565b9050919050565b6000613717826124c5565b91507fffffffffffffffffffffffffffffffffffffffffffffffffffffffffffffffff8203613749576137486135d1565b5b600182019050919050565b7f4e487b7100000000000000000000000000000000000000000000000000000000600052603260045260246000fd5b7f5573657220646f65736e27742068617665206120686f7573652072656e746564600082015250565b60006137b9602083612c0c565b91506137c482613783565b602082019050919050565b600060208201905081810360008301526137e8816137ac565b9050919050565b60006137fa826124c5565b9150613805836124c5565b925082820390508181111561381d5761381c6135d1565b5b92915050565b61382c816126d2565b82525050565b60006020820190506138476000830184613823565b92915050565b7f5265656e7472616e637947756172643a207265656e7472616e742063616c6c00600082015250565b6000613883601f83612c0c565b915061388e8261384d565b602082019050919050565b600060208201905081810360008301526138b281613876565b9050919050565b7f4e487b7100000000000000000000000000000000000000000000000000000000600052601260045260246000fd5b60006138f3826124c5565b91506138fe836124c5565b92508261390e5761390d6138b9565b5b828204905092915050565b6000613924826124c5565b915061392f836124c5565b925082820261393d816124c5565b91508282048414831517613954576139536135d1565b5b509291505056fea26469706673582212208766049787ca0d93fbf83e9fb7fee77b03621989774926568e12a6f4c8cb2cae64736f6c63430008130033",
  "immutableReferences": {},
  "source": "// SPDX-License-Identifier: MIT\npragma solidity ^0.8.7;\n\nimport \"@openzeppelin/contracts/utils/Counters.sol\";\nimport \"@openzeppelin/contracts/security/ReentrancyGuard.sol\";\n\ncontract RentHouse is ReentrancyGuard {\n  using Counters for Counters.Counter;\n  Counters.Counter private _counter;\n\n\n  address private owner;\n  uint256 private totalPayments;\n\n  struct User {\n    address walletAddress;\n    string name;\n    string lastname;\n    uint rentedHouseId;\n    uint balance;\n    uint debt;\n    uint start;\n\n  }\n\n  struct House {\n    uint id;\n    string name;\n    string imgUrl;\n    Status status;\n    uint rentFee;\n    uint saleFee;\n\n  }\n\n  enum Status {\n    Retired,\n    InUse,\n    Available\n  }\n\n  event HouseAdded(uint indexed id, string name, string imgUrl, uint rentFee, uint saleFee);\n  event HouseMetadataEdited(uint indexed id, string name, string imgUrl, uint rentFee, uint saleFee); \n  event HouseStatusEdited(uint indexed id, Status status);\n  event UserAdded(address indexed walletAddress, string name, string lastname);\n  event Deposit (address indexed walletAddress, uint amount);\n  event Checkout (address indexed walletAddress, uint indexed houseId);\n  event CheckInEvent (address indexed walletAddress, uint indexed houseId);\n  event PaymentMade (address indexed walletAddress, uint amount);\n  event Balance (address indexed walletAddress, uint amount);\n\n  mapping (address => User) private users;\n  mapping (uint => House) private houses;\n\n  constructor() {\n    owner = msg.sender;\n    totalPayments = 0;\n  }\n\n  modifier onlyOwner() {\n    require(msg.sender == owner, \"You're not the owner\");\n    _;\n  }\n\n  function setOwner (address _newOwner) external onlyOwner {\n    owner = _newOwner;\n  }\n\n  function addUser (string calldata name, string calldata _lastName ) external {\n    require(!isUser(msg.sender) , \"User already exists\");\n    users[msg.sender] = User(msg.sender, name, _lastName, 0, 0, 0, 0);\n    emit UserAdded(msg.sender, name, _lastName);\n  }\n\n  function addHouse ( string calldata name, string calldata url, uint rent, uint sale) external onlyOwner {\n    _counter.increment();\n    uint counter = _counter.current();\n    houses[counter] = House(counter, name, url, Status.Available, rent, sale);\n\n    emit HouseAdded(counter, houses[counter].name, houses[counter].imgUrl, rent, sale);\n  }\n\n  function editHouseMetadata (uint id , string calldata name, string calldata imgUrl, uint rentFee, uint saleFee) external onlyOwner {\n    require(houses[id].id != 0, \"House doesn't exist\");\n    House storage house = houses[id];\n    if(bytes(name).length != 0) {\n      house.name = name;\n    }\n    if(bytes(imgUrl).length != 0) {\n      house.imgUrl = imgUrl;\n    }\n    if(rentFee != 0) {\n      house.rentFee = rentFee;\n    }\n    if(saleFee != 0) {\n      house.saleFee = saleFee;\n    }\n\n    emit HouseMetadataEdited(id, house.name, house.imgUrl, house.rentFee, house.saleFee);\n  }\n\n  function editHouseStatus(uint id , Status status ) external onlyOwner {\n    require(houses[id].id != 0, \"House doesn't exist\");\n    houses[id].status = status;\n    emit HouseStatusEdited(id, status);\n  }\n\n  function checkOut(uint id) external {\n    require(isUser(msg.sender), \"User doesn't exist\");\n    require(houses[id].status == Status.Available, \"House is not available\");\n    require(users[msg.sender].rentedHouseId == 0, \"User already has a house rented\");\n    require(users[msg.sender].debt == 0, \"User has debt\");\n\n    users[msg.sender].start = block.timestamp;\n    users[msg.sender].rentedHouseId = id;\n    houses[id].status = Status.InUse;\n\n    emit Checkout(msg.sender, id);\n  }\n\n  function CheckIn() external {\n    require(isUser(msg.sender), \"User doesn't exist\");\n    uint rentedHouseId = users[msg.sender].rentedHouseId;\n    require(rentedHouseId != 0, \"User doesn't have a house rented\");\n\n    uint timeElapsed = block.timestamp - users[msg.sender].start;\n    uint rentFee = houses[rentedHouseId].rentFee;\n    users[msg.sender].debt += calculateDebt(timeElapsed, rentFee);\n    users[msg.sender].rentedHouseId = 0;\n    users[msg.sender].start = 0;\n    houses[rentedHouseId].status = Status.Available;\n\n    emit CheckInEvent(msg.sender, rentedHouseId);\n  }\n\n  function deposit () external payable {\n    require(isUser(msg.sender), \"User doesn't exist\");\n    require(msg.value > 0, \"You must send greater than 0\");\n    users[msg.sender].balance += msg.value;\n    emit Deposit(msg.sender, msg.value);\n  }\n\n  function makePayment () external payable {\n    require(isUser(msg.sender), \"User doesn't exist\");\n    uint debt = users[msg.sender].debt;\n    uint balance = users[msg.sender].balance;\n    require (debt > 0, \"User doesn't have debt\");\n    require (balance >= debt, \"User doesn't have enough balance\");\n\n    unchecked {\n      users[msg.sender].debt -= msg.value;\n    }\n\n    totalPayments += msg.value;\n    users[msg.sender].debt = 0;\n\n    emit PaymentMade(msg.sender, debt);\n  }\n\n  function withdrawBalance (uint amount) external nonReentrant {\n    require(isUser(msg.sender), \"User doesn't exist\");\n    uint balance = users[msg.sender].balance;\n    require(balance > amount, \"You don't have enough balance\");\n\n    unchecked {\n      users[msg.sender].balance -= amount;\n    }\n\n    (bool success, ) = msg.sender.call{value: amount}(\"\");\n    require(success, \"Transfer failed.\");\n\n    emit Balance(msg.sender, balance);\n  }\n\n  function withdrawOwnerBalance (uint amount) external onlyOwner nonReentrant {\n    require(totalPayments > amount, \"You don't have enough balance\");\n    (bool success, ) = msg.sender.call{value: amount}(\"\");\n    require(success, \"Transfer failed.\");\n    \n    unchecked {\n      totalPayments -= amount;\n    }\n  \n  }\n\n  function getOwner () external view returns (address) {\n    return owner;\n  }\n\n  function isUser(address walletAddress) private view returns (bool) {\n    return users[walletAddress].walletAddress != address(0);\n  }\n\n  function getUser(address walletAddress) external view returns (User memory) {\n    require(isUser(walletAddress), \"User doesn't exist\");\n    return users[walletAddress];\n  }\n\n  function getHouse(uint id) external view returns (House memory) {\n    require(houses[id].id != 0, \"House doesn't exist\");\n    return houses[id];\n  }\n\n  function getHouseByStatus(Status _status) external view returns(House[] memory) {\n    uint count = 0;\n    uint lenght = _counter.current();\n    for(uint i = 1; i <= lenght; i++) {\n      if(houses[i].status == _status) {\n        count++;\n      }\n    }\n\n    House[] memory result = new House[](count);\n    count = 0;\n    for(uint i = 1; i <= lenght; i++) {\n      if(houses[i].status == _status) {\n        result[count] = houses[i];\n        count++;\n      }\n    }\n    return result;\n  }\n\n  function calculateDebt(uint usedSecond, uint rentFee) private pure returns (uint) {\n    uint usedMinutes = usedSecond / 60;\n    return usedMinutes * rentFee;\n  }\n\n  function getCurrentCount() external view returns (uint) {\n    return _counter.current();\n  }\n\n  function getBalance() external view returns (uint) {\n    return address(this).balance;\n  }\n\n  function getTotalPayments() external view onlyOwner returns(uint) {\n    return totalPayments;\n  }\n\n\n\n}\n\n\n",
  "sourcePath": "C:\\Users\\msi\\Desktop\\BNBChainBootCamp\\contracts\\RentHouse.sol",
  "compiler": {
    "name": "solc",
    "version": "0.8.19+commit.7dd6d404.Emscripten.clang"
  },
  "schemaVersion": "3.4.13",
  "updatedAt": "2023-05-19T15:05:19.540Z",
  "networkType": "ethereum",
  "devdoc": {
    "kind": "dev",
    "methods": {},
    "version": 1
  },
  "userdoc": {
    "kind": "user",
    "methods": {},
    "version": 1
  }
}